{
  "contractName": "Bloodtoken",
  "abi": [
    {
      "anonymous": false,
      "inputs": [
        {
          "indexed": false,
          "internalType": "uint256",
          "name": "id",
          "type": "uint256"
        },
        {
          "indexed": false,
          "internalType": "string",
          "name": "newOwner",
          "type": "string"
        },
        {
          "indexed": false,
          "internalType": "uint256",
          "name": "verified",
          "type": "uint256"
        },
        {
          "indexed": false,
          "internalType": "string",
          "name": "status",
          "type": "string"
        }
      ],
      "name": "BloodTransfer",
      "type": "event"
    },
    {
      "anonymous": false,
      "inputs": [
        {
          "indexed": false,
          "internalType": "uint256",
          "name": "id",
          "type": "uint256"
        },
        {
          "indexed": false,
          "internalType": "string",
          "name": "curr_owner",
          "type": "string"
        },
        {
          "indexed": false,
          "internalType": "string",
          "name": "curr_owner_add",
          "type": "string"
        },
        {
          "indexed": false,
          "internalType": "uint256",
          "name": "verified",
          "type": "uint256"
        }
      ],
      "name": "BloodUnitCreate",
      "type": "event"
    },
    {
      "constant": true,
      "inputs": [
        {
          "internalType": "uint256",
          "name": "",
          "type": "uint256"
        }
      ],
      "name": "BloodStore",
      "outputs": [
        {
          "internalType": "uint256",
          "name": "id",
          "type": "uint256"
        },
        {
          "internalType": "string",
          "name": "uniqueid",
          "type": "string"
        },
        {
          "internalType": "string",
          "name": "aadhar",
          "type": "string"
        },
        {
          "internalType": "string",
          "name": "blood_group",
          "type": "string"
        },
        {
          "internalType": "string",
          "name": "expiry_date",
          "type": "string"
        },
        {
          "internalType": "uint256",
          "name": "statusCount",
          "type": "uint256"
        },
        {
          "internalType": "bool",
          "name": "exists",
          "type": "bool"
        }
      ],
      "payable": false,
      "stateMutability": "view",
      "type": "function"
    },
    {
      "constant": true,
      "inputs": [
        {
          "internalType": "address",
          "name": "",
          "type": "address"
        }
      ],
      "name": "UserStore",
      "outputs": [
        {
          "internalType": "address payable",
          "name": "user_address",
          "type": "address"
        },
        {
          "internalType": "string",
          "name": "email",
          "type": "string"
        },
        {
          "internalType": "string",
          "name": "password",
          "type": "string"
        },
        {
          "internalType": "string",
          "name": "name",
          "type": "string"
        },
        {
          "internalType": "string",
          "name": "addressUser",
          "type": "string"
        },
        {
          "internalType": "string",
          "name": "coords",
          "type": "string"
        },
        {
          "internalType": "string",
          "name": "typeID",
          "type": "string"
        },
        {
          "internalType": "bool",
          "name": "exists",
          "type": "bool"
        }
      ],
      "payable": false,
      "stateMutability": "view",
      "type": "function"
    },
    {
      "constant": true,
      "inputs": [],
      "name": "bloodCount",
      "outputs": [
        {
          "internalType": "uint256",
          "name": "",
          "type": "uint256"
        }
      ],
      "payable": false,
      "stateMutability": "view",
      "type": "function"
    },
    {
      "constant": true,
      "inputs": [
        {
          "internalType": "string",
          "name": "",
          "type": "string"
        }
      ],
      "name": "idToBloodId",
      "outputs": [
        {
          "internalType": "uint256",
          "name": "",
          "type": "uint256"
        }
      ],
      "payable": false,
      "stateMutability": "view",
      "type": "function"
    },
    {
      "constant": true,
      "inputs": [],
      "name": "userCount",
      "outputs": [
        {
          "internalType": "uint256",
          "name": "",
          "type": "uint256"
        }
      ],
      "payable": false,
      "stateMutability": "view",
      "type": "function"
    },
    {
      "constant": false,
      "inputs": [
        {
          "internalType": "string",
          "name": "_uniqueid",
          "type": "string"
        },
        {
          "internalType": "string",
          "name": "_aadhar",
          "type": "string"
        },
        {
          "internalType": "string",
          "name": "_blood_group",
          "type": "string"
        },
        {
          "internalType": "string",
          "name": "_expiry_date",
          "type": "string"
        },
        {
          "internalType": "string",
          "name": "_cur_owner",
          "type": "string"
        },
        {
          "internalType": "string",
          "name": "_cur_owner_address",
          "type": "string"
        }
      ],
      "name": "addBloodUnit",
      "outputs": [],
      "payable": false,
      "stateMutability": "nonpayable",
      "type": "function"
    },
    {
      "constant": true,
      "inputs": [
        {
          "internalType": "string",
          "name": "_id",
          "type": "string"
        }
      ],
      "name": "bloodExist",
      "outputs": [
        {
          "internalType": "bool",
          "name": "",
          "type": "bool"
        }
      ],
      "payable": false,
      "stateMutability": "view",
      "type": "function"
    },
    {
      "constant": true,
      "inputs": [
        {
          "internalType": "uint256",
          "name": "_id",
          "type": "uint256"
        }
      ],
      "name": "getBloodData",
      "outputs": [
        {
          "internalType": "string",
          "name": "",
          "type": "string"
        },
        {
          "internalType": "string",
          "name": "",
          "type": "string"
        },
        {
          "internalType": "string",
          "name": "",
          "type": "string"
        },
        {
          "internalType": "string",
          "name": "",
          "type": "string"
        }
      ],
      "payable": false,
      "stateMutability": "view",
      "type": "function"
    },
    {
      "constant": true,
      "inputs": [
        {
          "internalType": "uint256",
          "name": "_id",
          "type": "uint256"
        }
      ],
      "name": "getBloodStatusCount",
      "outputs": [
        {
          "internalType": "uint256",
          "name": "",
          "type": "uint256"
        }
      ],
      "payable": false,
      "stateMutability": "view",
      "type": "function"
    },
    {
      "constant": false,
      "inputs": [
        {
          "internalType": "uint256",
          "name": "_id",
          "type": "uint256"
        },
        {
          "internalType": "string",
          "name": "_oldUser",
          "type": "string"
        },
        {
          "internalType": "uint256",
          "name": "verified",
          "type": "uint256"
        },
        {
          "internalType": "string",
          "name": "_status",
          "type": "string"
        },
        {
          "internalType": "string",
          "name": "_newUser",
          "type": "string"
        }
      ],
      "name": "transferAsset",
      "outputs": [],
      "payable": false,
      "stateMutability": "nonpayable",
      "type": "function"
    },
    {
      "constant": true,
      "inputs": [],
      "name": "getBloodCount",
      "outputs": [
        {
          "internalType": "uint256",
          "name": "",
          "type": "uint256"
        }
      ],
      "payable": false,
      "stateMutability": "view",
      "type": "function"
    },
    {
      "constant": true,
      "inputs": [
        {
          "internalType": "uint256",
          "name": "_id",
          "type": "uint256"
        },
        {
          "internalType": "uint256",
          "name": "_status_count",
          "type": "uint256"
        }
      ],
      "name": "getBloodStatus",
      "outputs": [
        {
          "internalType": "uint256",
          "name": "",
          "type": "uint256"
        },
        {
          "internalType": "string",
          "name": "",
          "type": "string"
        },
        {
          "internalType": "string",
          "name": "",
          "type": "string"
        },
        {
          "internalType": "uint256",
          "name": "",
          "type": "uint256"
        }
      ],
      "payable": false,
      "stateMutability": "view",
      "type": "function"
    },
    {
      "constant": true,
      "inputs": [
        {
          "internalType": "address payable",
          "name": "user_address",
          "type": "address"
        }
      ],
      "name": "getIdentity",
      "outputs": [
        {
          "internalType": "bool",
          "name": "",
          "type": "bool"
        }
      ],
      "payable": false,
      "stateMutability": "view",
      "type": "function"
    },
    {
      "constant": false,
      "inputs": [
        {
          "internalType": "string",
          "name": "_name",
          "type": "string"
        },
        {
          "internalType": "address payable",
          "name": "user_address",
          "type": "address"
        },
        {
          "internalType": "string",
          "name": "_email",
          "type": "string"
        },
        {
          "internalType": "string",
          "name": "_password",
          "type": "string"
        },
        {
          "internalType": "string",
          "name": "_address",
          "type": "string"
        },
        {
          "internalType": "string",
          "name": "_coords",
          "type": "string"
        },
        {
          "internalType": "string",
          "name": "_typeID",
          "type": "string"
        }
      ],
      "name": "addIdentity",
      "outputs": [],
      "payable": false,
      "stateMutability": "nonpayable",
      "type": "function"
    },
    {
      "constant": true,
      "inputs": [
        {
          "internalType": "address payable",
          "name": "_user_add",
          "type": "address"
        },
        {
          "internalType": "string",
          "name": "_email",
          "type": "string"
        },
        {
          "internalType": "string",
          "name": "_password",
          "type": "string"
        }
      ],
      "name": "isloginValid",
      "outputs": [
        {
          "internalType": "string",
          "name": "",
          "type": "string"
        }
      ],
      "payable": false,
      "stateMutability": "view",
      "type": "function"
    },
    {
      "constant": true,
      "inputs": [
        {
          "internalType": "address payable",
          "name": "_user_add",
          "type": "address"
        }
      ],
      "name": "getLoginDetails",
      "outputs": [
        {
          "internalType": "string",
          "name": "",
          "type": "string"
        },
        {
          "internalType": "string",
          "name": "",
          "type": "string"
        },
        {
          "internalType": "string",
          "name": "",
          "type": "string"
        },
        {
          "internalType": "string",
          "name": "",
          "type": "string"
        }
      ],
      "payable": false,
      "stateMutability": "view",
      "type": "function"
    },
    {
      "constant": true,
      "inputs": [],
      "name": "getUserCount",
      "outputs": [
        {
          "internalType": "uint256",
          "name": "",
          "type": "uint256"
        }
      ],
      "payable": false,
      "stateMutability": "view",
      "type": "function"
    }
  ],
  "bytecode": "0x60806040526000600255600060045534801561001a57600080fd5b50613a3f8061002a6000396000f3fe608060405234801561001057600080fd5b506004361061010b5760003560e01c806369978f26116100a2578063acfabc1111610071578063acfabc1114611452578063b5cb15f71461164f578063b6e857c61461166d578063c615a13f1461168b578063c88b53a51461175a5761010b565b806369978f2614610bc557806374b5d2a614610f935780637691e9901461117e578063887beac11461137f5761010b565b80632fea7b81116100de5780632fea7b81146107f25780634a5445371461084e57806351f650e614610b655780636272e29414610b835761010b565b8063074360901461011057806307973ccf146102fb5780630c9e861a14610319578063255d7fba14610444575b600080fd5b6102806004803603606081101561012657600080fd5b81019080803573ffffffffffffffffffffffffffffffffffffffff1690602001909291908035906020019064010000000081111561016357600080fd5b82018360208201111561017557600080fd5b8035906020019184600183028401116401000000008311171561019757600080fd5b91908080601f016020809104026020016040519081016040528093929190818152602001838380828437600081840152601f19601f820116905080830192505050505050509192919290803590602001906401000000008111156101fa57600080fd5b82018360208201111561020c57600080fd5b8035906020019184600183028401116401000000008311171561022e57600080fd5b91908080601f016020809104026020016040519081016040528093929190818152602001838380828437600081840152601f19601f82011690508083019250505050505050919291929050505061195e565b6040518080602001828103825283818151815260200191508051906020019080838360005b838110156102c05780820151818401526020810190506102a5565b50505050905090810190601f1680156102ed5780820380516001836020036101000a031916815260200191505b509250505060405180910390f35b610303611ed7565b6040518082815260200191505060405180910390f35b61034f6004803603604081101561032f57600080fd5b810190808035906020019092919080359060200190929190505050611edd565b604051808581526020018060200180602001848152602001838103835286818151815260200191508051906020019080838360005b8381101561039f578082015181840152602081019050610384565b50505050905090810190601f1680156103cc5780820380516001836020036101000a031916815260200191505b50838103825285818151815260200191508051906020019080838360005b838110156104055780820151818401526020810190506103ea565b50505050905090810190601f1680156104325780820380516001836020036101000a031916815260200191505b50965050505050505060405180910390f35b6107f0600480360360c081101561045a57600080fd5b810190808035906020019064010000000081111561047757600080fd5b82018360208201111561048957600080fd5b803590602001918460018302840111640100000000831117156104ab57600080fd5b91908080601f016020809104026020016040519081016040528093929190818152602001838380828437600081840152601f19601f8201169050808301925050505050505091929192908035906020019064010000000081111561050e57600080fd5b82018360208201111561052057600080fd5b8035906020019184600183028401116401000000008311171561054257600080fd5b91908080601f016020809104026020016040519081016040528093929190818152602001838380828437600081840152601f19601f820116905080830192505050505050509192919290803590602001906401000000008111156105a557600080fd5b8201836020820111156105b757600080fd5b803590602001918460018302840111640100000000831117156105d957600080fd5b91908080601f016020809104026020016040519081016040528093929190818152602001838380828437600081840152601f19601f8201169050808301925050505050505091929192908035906020019064010000000081111561063c57600080fd5b82018360208201111561064e57600080fd5b8035906020019184600183028401116401000000008311171561067057600080fd5b91908080601f016020809104026020016040519081016040528093929190818152602001838380828437600081840152601f19601f820116905080830192505050505050509192919290803590602001906401000000008111156106d357600080fd5b8201836020820111156106e557600080fd5b8035906020019184600183028401116401000000008311171561070757600080fd5b91908080601f016020809104026020016040519081016040528093929190818152602001838380828437600081840152601f19601f8201169050808301925050505050505091929192908035906020019064010000000081111561076a57600080fd5b82018360208201111561077c57600080fd5b8035906020019184600183028401116401000000008311171561079e57600080fd5b91908080601f016020809104026020016040519081016040528093929190818152602001838380828437600081840152601f19601f8201169050808301925050505050505091929192905050506120a3565b005b6108346004803603602081101561080857600080fd5b81019080803573ffffffffffffffffffffffffffffffffffffffff169060200190929190505050612416565b604051808215151515815260200191505060405180910390f35b6108906004803603602081101561086457600080fd5b81019080803573ffffffffffffffffffffffffffffffffffffffff169060200190929190505050612480565b604051808973ffffffffffffffffffffffffffffffffffffffff1673ffffffffffffffffffffffffffffffffffffffff1681526020018060200180602001806020018060200180602001806020018815151515815260200187810387528e818151815260200191508051906020019080838360005b83811015610920578082015181840152602081019050610905565b50505050905090810190601f16801561094d5780820380516001836020036101000a031916815260200191505b5087810386528d818151815260200191508051906020019080838360005b8381101561098657808201518184015260208101905061096b565b50505050905090810190601f1680156109b35780820380516001836020036101000a031916815260200191505b5087810385528c818151815260200191508051906020019080838360005b838110156109ec5780820151818401526020810190506109d1565b50505050905090810190601f168015610a195780820380516001836020036101000a031916815260200191505b5087810384528b818151815260200191508051906020019080838360005b83811015610a52578082015181840152602081019050610a37565b50505050905090810190601f168015610a7f5780820380516001836020036101000a031916815260200191505b5087810383528a818151815260200191508051906020019080838360005b83811015610ab8578082015181840152602081019050610a9d565b50505050905090810190601f168015610ae55780820380516001836020036101000a031916815260200191505b50878103825289818151815260200191508051906020019080838360005b83811015610b1e578082015181840152602081019050610b03565b50505050905090810190601f168015610b4b5780820380516001836020036101000a031916815260200191505b509e50505050505050505050505050505060405180910390f35b610b6d612885565b6040518082815260200191505060405180910390f35b610baf60048036036020811015610b9957600080fd5b810190808035906020019092919050505061288f565b6040518082815260200191505060405180910390f35b610f91600480360360e0811015610bdb57600080fd5b8101908080359060200190640100000000811115610bf857600080fd5b820183602082011115610c0a57600080fd5b80359060200191846001830284011164010000000083111715610c2c57600080fd5b91908080601f016020809104026020016040519081016040528093929190818152602001838380828437600081840152601f19601f820116905080830192505050505050509192919290803573ffffffffffffffffffffffffffffffffffffffff16906020019092919080359060200190640100000000811115610caf57600080fd5b820183602082011115610cc157600080fd5b80359060200191846001830284011164010000000083111715610ce357600080fd5b91908080601f016020809104026020016040519081016040528093929190818152602001838380828437600081840152601f19601f82011690508083019250505050505050919291929080359060200190640100000000811115610d4657600080fd5b820183602082011115610d5857600080fd5b80359060200191846001830284011164010000000083111715610d7a57600080fd5b91908080601f016020809104026020016040519081016040528093929190818152602001838380828437600081840152601f19601f82011690508083019250505050505050919291929080359060200190640100000000811115610ddd57600080fd5b820183602082011115610def57600080fd5b80359060200191846001830284011164010000000083111715610e1157600080fd5b91908080601f016020809104026020016040519081016040528093929190818152602001838380828437600081840152601f19601f82011690508083019250505050505050919291929080359060200190640100000000811115610e7457600080fd5b820183602082011115610e8657600080fd5b80359060200191846001830284011164010000000083111715610ea857600080fd5b91908080601f016020809104026020016040519081016040528093929190818152602001838380828437600081840152601f19601f82011690508083019250505050505050919291929080359060200190640100000000811115610f0b57600080fd5b820183602082011115610f1d57600080fd5b80359060200191846001830284011164010000000083111715610f3f57600080fd5b91908080601f016020809104026020016040519081016040528093929190818152602001838380828437600081840152601f19601f8201169050808301925050505050505091929192905050506128ae565b005b610fbf60048036036020811015610fa957600080fd5b8101908080359060200190929190505050612a73565b6040518080602001806020018060200180602001858103855289818151815260200191508051906020019080838360005b8381101561100b578082015181840152602081019050610ff0565b50505050905090810190601f1680156110385780820380516001836020036101000a031916815260200191505b50858103845288818151815260200191508051906020019080838360005b83811015611071578082015181840152602081019050611056565b50505050905090810190601f16801561109e5780820380516001836020036101000a031916815260200191505b50858103835287818151815260200191508051906020019080838360005b838110156110d75780820151818401526020810190506110bc565b50505050905090810190601f1680156111045780820380516001836020036101000a031916815260200191505b50858103825286818151815260200191508051906020019080838360005b8381101561113d578082015181840152602081019050611122565b50505050905090810190601f16801561116a5780820380516001836020036101000a031916815260200191505b509850505050505050505060405180910390f35b6111c06004803603602081101561119457600080fd5b81019080803573ffffffffffffffffffffffffffffffffffffffff169060200190929190505050612d4c565b6040518080602001806020018060200180602001858103855289818151815260200191508051906020019080838360005b8381101561120c5780820151818401526020810190506111f1565b50505050905090810190601f1680156112395780820380516001836020036101000a031916815260200191505b50858103845288818151815260200191508051906020019080838360005b83811015611272578082015181840152602081019050611257565b50505050905090810190601f16801561129f5780820380516001836020036101000a031916815260200191505b50858103835287818151815260200191508051906020019080838360005b838110156112d85780820151818401526020810190506112bd565b50505050905090810190601f1680156113055780820380516001836020036101000a031916815260200191505b50858103825286818151815260200191508051906020019080838360005b8381101561133e578082015181840152602081019050611323565b50505050905090810190601f16801561136b5780820380516001836020036101000a031916815260200191505b509850505050505050505060405180910390f35b6114386004803603602081101561139557600080fd5b81019080803590602001906401000000008111156113b257600080fd5b8201836020820111156113c457600080fd5b803590602001918460018302840111640100000000831117156113e657600080fd5b91908080601f016020809104026020016040519081016040528093929190818152602001838380828437600081840152601f19601f8201169050808301925050505050505091929192905050506130d9565b604051808215151515815260200191505060405180910390f35b61164d600480360360a081101561146857600080fd5b81019080803590602001909291908035906020019064010000000081111561148f57600080fd5b8201836020820111156114a157600080fd5b803590602001918460018302840111640100000000831117156114c357600080fd5b91908080601f016020809104026020016040519081016040528093929190818152602001838380828437600081840152601f19601f820116905080830192505050505050509192919290803590602001909291908035906020019064010000000081111561153057600080fd5b82018360208201111561154257600080fd5b8035906020019184600183028401116401000000008311171561156457600080fd5b91908080601f016020809104026020016040519081016040528093929190818152602001838380828437600081840152601f19601f820116905080830192505050505050509192919290803590602001906401000000008111156115c757600080fd5b8201836020820111156115d957600080fd5b803590602001918460018302840111640100000000831117156115fb57600080fd5b91908080601f016020809104026020016040519081016040528093929190818152602001838380828437600081840152601f19601f82011690508083019250505050505050919291929050505061317f565b005b6116576135d0565b6040518082815260200191505060405180910390f35b6116756135da565b6040518082815260200191505060405180910390f35b611744600480360360208110156116a157600080fd5b81019080803590602001906401000000008111156116be57600080fd5b8201836020820111156116d057600080fd5b803590602001918460018302840111640100000000831117156116f257600080fd5b91908080601f016020809104026020016040519081016040528093929190818152602001838380828437600081840152601f19601f8201169050808301925050505050505091929192905050506135e0565b6040518082815260200191505060405180910390f35b6117866004803603602081101561177057600080fd5b810190808035906020019092919050505061360e565b60405180888152602001806020018060200180602001806020018781526020018615151515815260200185810385528b818151815260200191508051906020019080838360005b838110156117e85780820151818401526020810190506117cd565b50505050905090810190601f1680156118155780820380516001836020036101000a031916815260200191505b5085810384528a818151815260200191508051906020019080838360005b8381101561184e578082015181840152602081019050611833565b50505050905090810190601f16801561187b5780820380516001836020036101000a031916815260200191505b50858103835289818151815260200191508051906020019080838360005b838110156118b4578082015181840152602081019050611899565b50505050905090810190601f1680156118e15780820380516001836020036101000a031916815260200191505b50858103825288818151815260200191508051906020019080838360005b8381101561191a5780820151818401526020810190506118ff565b50505050905090810190601f1680156119475780820380516001836020036101000a031916815260200191505b509b50505050505050505050505060405180910390f35b60606002836040516020018082805190602001908083835b602083106119995780518252602082019150602081019050602083039250611976565b6001836020036101000a0380198251168184511680821785525050505050509050019150506040516020818303038152906040526040518082805190602001908083835b60208310611a0057805182526020820191506020810190506020830392506119dd565b6001836020036101000a038019825116818451168082178552505050505050905001915050602060405180830381855afa158015611a42573d6000803e3d6000fd5b5050506040513d6020811015611a5757600080fd5b81019080805190602001909291905050506002600360008773ffffffffffffffffffffffffffffffffffffffff1673ffffffffffffffffffffffffffffffffffffffff1681526020019081526020016000206001016040516020018082805460018160011615610100020316600290048015611b0a5780601f10611ae8576101008083540402835291820191611b0a565b820191906000526020600020905b815481529060010190602001808311611af6575b50509150506040516020818303038152906040526040518082805190602001908083835b60208310611b515780518252602082019150602081019050602083039250611b2e565b6001836020036101000a038019825116818451168082178552505050505050905001915050602060405180830381855afa158015611b93573d6000803e3d6000fd5b5050506040513d6020811015611ba857600080fd5b810190808051906020019092919050505014611bfb576040518060400160405280600181526020017f31000000000000000000000000000000000000000000000000000000000000008152509050611ed0565b6002826040516020018082805190602001908083835b60208310611c345780518252602082019150602081019050602083039250611c11565b6001836020036101000a0380198251168184511680821785525050505050509050019150506040516020818303038152906040526040518082805190602001908083835b60208310611c9b5780518252602082019150602081019050602083039250611c78565b6001836020036101000a038019825116818451168082178552505050505050905001915050602060405180830381855afa158015611cdd573d6000803e3d6000fd5b5050506040513d6020811015611cf257600080fd5b81019080805190602001909291905050506002600360008773ffffffffffffffffffffffffffffffffffffffff1673ffffffffffffffffffffffffffffffffffffffff1681526020019081526020016000206002016040516020018082805460018160011615610100020316600290048015611da55780601f10611d83576101008083540402835291820191611da5565b820191906000526020600020905b815481529060010190602001808311611d91575b50509150506040516020818303038152906040526040518082805190602001908083835b60208310611dec5780518252602082019150602081019050602083039250611dc9565b6001836020036101000a038019825116818451168082178552505050505050905001915050602060405180830381855afa158015611e2e573d6000803e3d6000fd5b5050506040513d6020811015611e4357600080fd5b81019080805190602001909291905050501415611e97576040518060400160405280600181526020017f32000000000000000000000000000000000000000000000000000000000000008152509050611ed0565b6040518060400160405280600181526020017f330000000000000000000000000000000000000000000000000000000000000081525090505b9392505050565b60045481565b60006060806000611eec6138bd565b600080888152602001908152602001600020600701600087815260200190815260200160002060405180608001604052908160008201548152602001600182018054600181600116156101000203166002900480601f016020809104026020016040519081016040528092919081815260200182805460018160011615610100020316600290048015611fc05780601f10611f9557610100808354040283529160200191611fc0565b820191906000526020600020905b815481529060010190602001808311611fa357829003601f168201915b50505050508152602001600282018054600181600116156101000203166002900480601f0160208091040260200160405190810160405280929190818152602001828054600181600116156101000203166002900480156120625780601f1061203757610100808354040283529160200191612062565b820191906000526020600020905b81548152906001019060200180831161204557829003601f168201915b505050505081526020016003820154815250509050806000015181602001518260400151836060015182925081915094509450945094505092959194509250565b6002600081548092919060010191905055506002546001876040518082805190602001908083835b602083106120ee57805182526020820191506020810190506020830392506120cb565b6001836020036101000a038019825116818451168082178552505050505050905001915050908152602001604051809103902081905550600254600080600254815260200190815260200160002060000181905550856000806002548152602001908152602001600020600101908051906020019061216e9291906138e5565b50846000806002548152602001908152602001600020600201908051906020019061219a9291906138e5565b5083600080600254815260200190815260200160002060030190805190602001906121c69291906138e5565b5082600080600254815260200190815260200160002060040190805190602001906121f29291906138e5565b5060016000806002548152602001908152602001600020600501819055506001600080600254815260200190815260200160002060060160006101000a81548160ff021916908315150217905550604051806080016040528042815260200182815260200183815260200160008152506000806002548152602001908152602001600020600701600080600060025481526020019081526020016000206005015481526020019081526020016000206000820151816000015560208201518160010190805190602001906122c7929190613965565b5060408201518160020190805190602001906122e4929190613965565b50606082015181600301559050507f644bbbb3f89829fbb21807f317732bef533c7f1dc72733ff91b8a3abfe4c8fda60025483836000604051808581526020018060200180602001848152602001838103835286818151815260200191508051906020019080838360005b8381101561236a57808201518184015260208101905061234f565b50505050905090810190601f1680156123975780820380516001836020036101000a031916815260200191505b50838103825285818151815260200191508051906020019080838360005b838110156123d05780820151818401526020810190506123b5565b50505050905090810190601f1680156123fd5780820380516001836020036101000a031916815260200191505b50965050505050505060405180910390a1505050505050565b6000600360008373ffffffffffffffffffffffffffffffffffffffff1673ffffffffffffffffffffffffffffffffffffffff16815260200190815260200160002060070160009054906101000a900460ff1615612476576001905061247b565b600090505b919050565b60036020528060005260406000206000915090508060000160009054906101000a900473ffffffffffffffffffffffffffffffffffffffff1690806001018054600181600116156101000203166002900480601f0160208091040260200160405190810160405280929190818152602001828054600181600116156101000203166002900480156125525780601f1061252757610100808354040283529160200191612552565b820191906000526020600020905b81548152906001019060200180831161253557829003601f168201915b505050505090806002018054600181600116156101000203166002900480601f0160208091040260200160405190810160405280929190818152602001828054600181600116156101000203166002900480156125f05780601f106125c5576101008083540402835291602001916125f0565b820191906000526020600020905b8154815290600101906020018083116125d357829003601f168201915b505050505090806003018054600181600116156101000203166002900480601f01602080910402602001604051908101604052809291908181526020018280546001816001161561010002031660029004801561268e5780601f106126635761010080835404028352916020019161268e565b820191906000526020600020905b81548152906001019060200180831161267157829003601f168201915b505050505090806004018054600181600116156101000203166002900480601f01602080910402602001604051908101604052809291908181526020018280546001816001161561010002031660029004801561272c5780601f106127015761010080835404028352916020019161272c565b820191906000526020600020905b81548152906001019060200180831161270f57829003601f168201915b505050505090806005018054600181600116156101000203166002900480601f0160208091040260200160405190810160405280929190818152602001828054600181600116156101000203166002900480156127ca5780601f1061279f576101008083540402835291602001916127ca565b820191906000526020600020905b8154815290600101906020018083116127ad57829003601f168201915b505050505090806006018054600181600116156101000203166002900480601f0160208091040260200160405190810160405280929190818152602001828054600181600116156101000203166002900480156128685780601f1061283d57610100808354040283529160200191612868565b820191906000526020600020905b81548152906001019060200180831161284b57829003601f168201915b5050505050908060070160009054906101000a900460ff16905088565b6000600254905090565b6000806000838152602001908152602001600020600501549050919050565b6004600081548092919060010191905055506040518061010001604052808773ffffffffffffffffffffffffffffffffffffffff16815260200186815260200185815260200188815260200184815260200183815260200182815260200160011515815250600360008873ffffffffffffffffffffffffffffffffffffffff1673ffffffffffffffffffffffffffffffffffffffff16815260200190815260200160002060008201518160000160006101000a81548173ffffffffffffffffffffffffffffffffffffffff021916908373ffffffffffffffffffffffffffffffffffffffff16021790555060208201518160010190805190602001906129b5929190613965565b5060408201518160020190805190602001906129d2929190613965565b5060608201518160030190805190602001906129ef929190613965565b506080820151816004019080519060200190612a0c929190613965565b5060a0820151816005019080519060200190612a29929190613965565b5060c0820151816006019080519060200190612a46929190613965565b5060e08201518160070160006101000a81548160ff02191690831515021790555090505050505050505050565b606080606080600080868152602001908152602001600020600101600080878152602001908152602001600020600201600080888152602001908152602001600020600301600080898152602001908152602001600020600401838054600181600116156101000203166002900480601f016020809104026020016040519081016040528092919081815260200182805460018160011615610100020316600290048015612b625780601f10612b3757610100808354040283529160200191612b62565b820191906000526020600020905b815481529060010190602001808311612b4557829003601f168201915b50505050509350828054600181600116156101000203166002900480601f016020809104026020016040519081016040528092919081815260200182805460018160011615610100020316600290048015612bfe5780601f10612bd357610100808354040283529160200191612bfe565b820191906000526020600020905b815481529060010190602001808311612be157829003601f168201915b50505050509250818054600181600116156101000203166002900480601f016020809104026020016040519081016040528092919081815260200182805460018160011615610100020316600290048015612c9a5780601f10612c6f57610100808354040283529160200191612c9a565b820191906000526020600020905b815481529060010190602001808311612c7d57829003601f168201915b50505050509150808054600181600116156101000203166002900480601f016020809104026020016040519081016040528092919081815260200182805460018160011615610100020316600290048015612d365780601f10612d0b57610100808354040283529160200191612d36565b820191906000526020600020905b815481529060010190602001808311612d1957829003601f168201915b5050505050905093509350935093509193509193565b606080606080600360008673ffffffffffffffffffffffffffffffffffffffff1673ffffffffffffffffffffffffffffffffffffffff168152602001908152602001600020600301600360008773ffffffffffffffffffffffffffffffffffffffff1673ffffffffffffffffffffffffffffffffffffffff168152602001908152602001600020600601600360008873ffffffffffffffffffffffffffffffffffffffff1673ffffffffffffffffffffffffffffffffffffffff168152602001908152602001600020600401600360008973ffffffffffffffffffffffffffffffffffffffff1673ffffffffffffffffffffffffffffffffffffffff168152602001908152602001600020600501838054600181600116156101000203166002900480601f016020809104026020016040519081016040528092919081815260200182805460018160011615610100020316600290048015612eef5780601f10612ec457610100808354040283529160200191612eef565b820191906000526020600020905b815481529060010190602001808311612ed257829003601f168201915b50505050509350828054600181600116156101000203166002900480601f016020809104026020016040519081016040528092919081815260200182805460018160011615610100020316600290048015612f8b5780601f10612f6057610100808354040283529160200191612f8b565b820191906000526020600020905b815481529060010190602001808311612f6e57829003601f168201915b50505050509250818054600181600116156101000203166002900480601f0160208091040260200160405190810160405280929190818152602001828054600181600116156101000203166002900480156130275780601f10612ffc57610100808354040283529160200191613027565b820191906000526020600020905b81548152906001019060200180831161300a57829003601f168201915b50505050509150808054600181600116156101000203166002900480601f0160208091040260200160405190810160405280929190818152602001828054600181600116156101000203166002900480156130c35780601f10613098576101008083540402835291602001916130c3565b820191906000526020600020905b8154815290600101906020018083116130a657829003601f168201915b5050505050905093509350935093509193509193565b60008060006001846040518082805190602001908083835b6020831061311457805182526020820191506020810190506020830392506130f1565b6001836020036101000a038019825116818451168082178552505050505050905001915050908152602001604051809103902054815260200190815260200160002060060160009054906101000a900460ff1615613175576001905061317a565b600090505b919050565b6002846040516020018082805190602001908083835b602083106131b85780518252602082019150602081019050602083039250613195565b6001836020036101000a0380198251168184511680821785525050505050509050019150506040516020818303038152906040526040518082805190602001908083835b6020831061321f57805182526020820191506020810190506020830392506131fc565b6001836020036101000a038019825116818451168082178552505050505050905001915050602060405180830381855afa158015613261573d6000803e3d6000fd5b5050506040513d602081101561327657600080fd5b8101908080519060200190929190505050600260008088815260200190815260200160002060070160008060008a815260200190815260200160002060050154815260200190815260200160002060020160405160200180828054600181600116156101000203166002900480156133255780601f10613303576101008083540402835291820191613325565b820191906000526020600020905b815481529060010190602001808311613311575b50509150506040516020818303038152906040526040518082805190602001908083835b6020831061336c5780518252602082019150602081019050602083039250613349565b6001836020036101000a038019825116818451168082178552505050505050905001915050602060405180830381855afa1580156133ae573d6000803e3d6000fd5b5050506040513d60208110156133c357600080fd5b8101908080519060200190929190505050146133de57600080fd5b600080868152602001908152602001600020600501600081548092919060010191905055506040518060800160405280428152602001838152602001828152602001848152506000808781526020019081526020016000206007016000806000898152602001908152602001600020600501548152602001908152602001600020600082015181600001556020820151816001019080519060200190613485929190613965565b5060408201518160020190805190602001906134a2929190613965565b50606082015181600301559050507f5d821b8b6ce18465607d9c51957a48484030b98fc16bf4b5a700a595f2b2bd6f85828585604051808581526020018060200184815260200180602001838103835286818151815260200191508051906020019080838360005b8381101561352557808201518184015260208101905061350a565b50505050905090810190601f1680156135525780820380516001836020036101000a031916815260200191505b50838103825284818151815260200191508051906020019080838360005b8381101561358b578082015181840152602081019050613570565b50505050905090810190601f1680156135b85780820380516001836020036101000a031916815260200191505b50965050505050505060405180910390a15050505050565b6000600454905090565b60025481565b6001818051602081018201805184825260208301602085012081835280955050505050506000915090505481565b6000602052806000526040600020600091509050806000015490806001018054600181600116156101000203166002900480601f0160208091040260200160405190810160405280929190818152602001828054600181600116156101000203166002900480156136c05780601f10613695576101008083540402835291602001916136c0565b820191906000526020600020905b8154815290600101906020018083116136a357829003601f168201915b505050505090806002018054600181600116156101000203166002900480601f01602080910402602001604051908101604052809291908181526020018280546001816001161561010002031660029004801561375e5780601f106137335761010080835404028352916020019161375e565b820191906000526020600020905b81548152906001019060200180831161374157829003601f168201915b505050505090806003018054600181600116156101000203166002900480601f0160208091040260200160405190810160405280929190818152602001828054600181600116156101000203166002900480156137fc5780601f106137d1576101008083540402835291602001916137fc565b820191906000526020600020905b8154815290600101906020018083116137df57829003601f168201915b505050505090806004018054600181600116156101000203166002900480601f01602080910402602001604051908101604052809291908181526020018280546001816001161561010002031660029004801561389a5780601f1061386f5761010080835404028352916020019161389a565b820191906000526020600020905b81548152906001019060200180831161387d57829003601f168201915b5050505050908060050154908060060160009054906101000a900460ff16905087565b6040518060800160405280600081526020016060815260200160608152602001600081525090565b828054600181600116156101000203166002900490600052602060002090601f016020900481019282601f1061392657805160ff1916838001178555613954565b82800160010185558215613954579182015b82811115613953578251825591602001919060010190613938565b5b50905061396191906139e5565b5090565b828054600181600116156101000203166002900490600052602060002090601f016020900481019282601f106139a657805160ff19168380011785556139d4565b828001600101855582156139d4579182015b828111156139d35782518255916020019190600101906139b8565b5b5090506139e191906139e5565b5090565b613a0791905b80821115613a035760008160009055506001016139eb565b5090565b9056fea265627a7a7231582040ef16762169973cd6b2c0792d91caf457160a10be46ed49904883cbe677e53064736f6c63430005110032",
  "source": "// SPDX-License-Identifier: MIT\r\npragma solidity ^0.5.1;\r\n\r\n\r\n\r\ncontract Bloodtoken{\r\n    struct BloodStatus {\r\n        uint256 time; //status time\r\n        string cur_add; // address of current owner\r\n        string owner; // current owner name\r\n        uint256 verified; // 0 for not checked 1 for safe 2 for unsafe\r\n    }\r\n    struct BloodUnit {\r\n        uint256 id; // to fetch in map\r\n        string uniqueid;\r\n        string aadhar;\r\n        string blood_group;\r\n        string expiry_date;\r\n        uint256 statusCount; // keep track of no of status changes\r\n        bool exists;\r\n        mapping(uint256 => BloodStatus) bloodStatus;\r\n    }\r\n\r\n    struct User {\r\n        address payable user_address;\r\n        string email;\r\n        string password;\r\n        string name;\r\n        string addressUser;\r\n        string coords; // coordinates from address\r\n        string typeID;\r\n        bool exists;\r\n    }\r\n\r\n\r\n\r\n\r\n\r\n\r\n    mapping(uint256 => BloodUnit) public BloodStore;\r\n    mapping(string => uint256) public idToBloodId;\r\n    // to store the no of available bloods\r\n    // its public so that we can modify from js\r\n    uint256 public bloodCount = 0;\r\n\r\n    // event to store bloodUnit Creation on Chain\r\n    event BloodUnitCreate(\r\n        uint256 id,\r\n        string curr_owner,\r\n        string curr_owner_add,\r\n        uint256 verified\r\n    );\r\n\r\n    // event to store blood transfer from Blood Bank to Hospital on Chain\r\n    event BloodTransfer(\r\n        uint256 id,\r\n        string newOwner,\r\n        uint256 verified,\r\n        string status\r\n    );\r\n\r\n    // BloodUnit Methods\r\n\r\n    function addBloodUnit(\r\n        string memory _uniqueid,\r\n        string memory _aadhar,\r\n        string memory _blood_group,\r\n        string memory _expiry_date,\r\n        string memory _cur_owner,\r\n        string memory _cur_owner_address // ccordinates\r\n    ) public {\r\n        bloodCount++;\r\n        idToBloodId[_uniqueid] = bloodCount;\r\n        BloodStore[bloodCount].id = bloodCount;\r\n        BloodStore[bloodCount].uniqueid = _uniqueid;\r\n        BloodStore[bloodCount].aadhar = _aadhar;\r\n        BloodStore[bloodCount].blood_group = _blood_group;\r\n        BloodStore[bloodCount].expiry_date = _expiry_date;\r\n        BloodStore[bloodCount].statusCount = 1;\r\n        BloodStore[bloodCount].exists = true;\r\n        BloodStore[bloodCount].bloodStatus[\r\n            BloodStore[bloodCount].statusCount\r\n        ] = BloodStatus(\r\n            block.timestamp,\r\n            _cur_owner_address,\r\n            _cur_owner,\r\n            0\r\n        );\r\n        // save transaction on Chain\r\n        emit BloodUnitCreate(bloodCount, _cur_owner, _cur_owner_address, 0);\r\n    }\r\n\r\n    function bloodExist(string memory _id) public view returns (bool) {\r\n        if (BloodStore[idToBloodId[_id]].exists) return true;\r\n        return false;\r\n    }\r\n\r\n    // give detail about the donor and sample\r\n    function getBloodData(uint256 _id)\r\n        public\r\n        view\r\n        returns (\r\n            string memory,\r\n            string memory,\r\n            string memory,\r\n            string memory\r\n        )\r\n    {\r\n        return (\r\n            BloodStore[_id].uniqueid,\r\n            BloodStore[_id].aadhar,\r\n            BloodStore[_id].blood_group,\r\n            BloodStore[_id].expiry_date\r\n        );\r\n    }\r\n\r\n    //give verification status and no of changes done on this smaple\r\n    function getBloodStatusCount(uint256 _id) public view returns (uint256) {\r\n        return (BloodStore[_id].statusCount);\r\n    }\r\n\r\n    function transferAsset(\r\n        uint256 _id,\r\n        string memory _oldUser,\r\n        uint256 verified,\r\n        string memory _status,\r\n        string memory _newUser\r\n    ) public {\r\n        require(\r\n            sha256(\r\n                abi.encodePacked(\r\n                    (\r\n                        BloodStore[_id]\r\n                            .bloodStatus[BloodStore[_id].statusCount]\r\n                            .owner\r\n                    )\r\n                )\r\n            ) == sha256(abi.encodePacked((_oldUser)))\r\n        );\r\n        BloodStore[_id].statusCount++;\r\n        BloodStore[_id].bloodStatus[\r\n            BloodStore[_id].statusCount\r\n        ] = BloodStatus(\r\n            block.timestamp,\r\n            _status,\r\n            _newUser,\r\n            verified\r\n        );\r\n\r\n        // save tranfer transaction on Chain\r\n        emit BloodTransfer(_id, _newUser, verified, _status);\r\n    }\r\n\r\n    // get total avl bloods\r\n    function getBloodCount() public view returns (uint256) {\r\n        return bloodCount;\r\n    }\r\n\r\n    // Status Methods\r\n\r\n    function getBloodStatus(uint256 _id, uint256 _status_count)\r\n        public\r\n        view\r\n        returns (\r\n            uint256,\r\n            string memory,\r\n            string memory,\r\n            uint256\r\n        )\r\n    {\r\n        // finding status of Blood of given id and status count\r\n        BloodStatus memory tempStatus = BloodStore[_id]\r\n            .bloodStatus[_status_count];\r\n        return (\r\n            tempStatus.time,\r\n            tempStatus.cur_add,\r\n            tempStatus.owner,\r\n            tempStatus.verified\r\n        );\r\n    }\r\n\r\n    // User Methods\r\n\r\n    mapping(address => User) public UserStore;\r\n\r\n    uint256 public userCount = 0;\r\n\r\n    function getIdentity(address payable user_address)\r\n        public\r\n        view\r\n        returns (bool)\r\n    {\r\n        if (UserStore[user_address].exists) return true;\r\n        return false;\r\n    }\r\n\r\n    function addIdentity(\r\n        string memory _name,\r\n        address payable user_address,\r\n        string memory _email,\r\n        string memory _password,\r\n        string memory _address,\r\n        string memory _coords,\r\n        string memory _typeID\r\n    ) public {\r\n        userCount++;\r\n        UserStore[user_address] = User(\r\n            user_address,\r\n            _email,\r\n            _password,\r\n            _name,\r\n            _address,\r\n            _coords,\r\n            _typeID,\r\n            true\r\n        );\r\n    }\r\n\r\n    function isloginValid(\r\n        address payable _user_add,\r\n        string memory _email,\r\n        string memory _password\r\n    ) public view returns (string memory) {\r\n        if (\r\n            sha256(abi.encodePacked((UserStore[_user_add].email))) !=\r\n            sha256(abi.encodePacked((_email)))\r\n        ) {\r\n            return \"1\";\r\n        } else if (\r\n            sha256(abi.encodePacked((UserStore[_user_add].password))) ==\r\n            sha256(abi.encodePacked((_password)))\r\n        ) {\r\n            return \"2\";\r\n        }\r\n        return \"3\";\r\n    }\r\n\r\n    function getLoginDetails(address payable _user_add)\r\n        public\r\n        view\r\n        returns (\r\n            string memory,\r\n            string memory,\r\n            string memory,\r\n            string memory\r\n        )\r\n    {\r\n        return (\r\n            UserStore[_user_add].name,\r\n            UserStore[_user_add].typeID,\r\n            UserStore[_user_add].addressUser,\r\n            UserStore[_user_add].coords\r\n        );\r\n    }\r\n\r\n    function getUserCount() public view returns (uint256) {\r\n        return userCount;\r\n    }\r\n}\r\n",
  "sourcePath": "C:\\Users\\garun\\OneDrive\\Desktop\\newprj2\\BloodChainX\\src\\contracts\\BloodDaan.sol",
  "compiler": {
    "name": "solc",
    "version": "0.5.17+commit.d19bba13.Emscripten.clang"
  },
  "schemaVersion": "3.4.16",
  "updatedAt": "2024-04-01T16:06:07.364Z",
  "networkType": "ethereum",
  "devdoc": {
    "methods": {}
  },
  "userdoc": {
    "methods": {}
  }
}